:040000008A15002835
:10000800FF00030E83018316AC000A08AD008A01C5
:1000180070088312A6007108A5007B08A4007C085C
:10002800A3007D08A2000B1E50288B1C5028061820
:100038004E280816ED01EE0180306E06F000803083
:100048007002031D292803306D0203184D28081576
:100058000330FB008A30FC005530FD00FD0B3228D0
:10006800FC0B3228FB0B322800000000081103307B
:10007800FB008A30FC005530FD00FD0B4128FC0BCD
:100088004128FB0B412800000000ED0A0319EE0A85
:10009800202808128B10A9298B1D9A280B1C9A2836
:1000A800061E7628881608130B30FB002630FC0045
:1000B8005D30FD00FD0B5E28FC0B5E28FB0B5E2807
:1000C80000000000881208130230FB004530FC00D5
:1000D800A930FD00FD0B6E28FC0B6E28FB0B6E286B
:1000E80000000000861E9828081788120B30FB00B5
:1000F8002630FC005D30FD00FD0B8028FC0B8028BD
:10010800FB0B802800000000081388120230FB0057
:100118004530FC00A930FD00FD0B9028FC0B902811
:10012800FB0B9028000000000B10A9298B1EA929A1
:100138000B1DA9290130E802031CE90300306906F8
:10014800031DA82800306806031DA829203083163F
:10015800B8000330B900E830BA000330BB003225DC
:1001680083160313B8018C2419263530F4005E3049
:10017800F5007A30F6007D30F7009326B424700835
:100188008316B6007108B7003608A4003708A50022
:100198000A30F4000030F5003608F0003708F100A6
:1001A80024240A30F4000030F50024247808F000F4
:1001B8007908F10070088316B4007108B500340896
:1001C800A2003508A3000A30F4000030F500360814
:1001D800F0003708F10024247808F0007908F100CD
:1001E80070088316A0007108A10000303506031DB1
:1001F800FF2804303406031D3C298030F00080308D
:1002080021067002031D0A292008023C031C3C2910
:1002180000302306031D12290330220603193C2946
:1002280000302106031D1A290930200603193C292C
:10023800831208140630FB001330FC00AD30FD00BB
:10024800FD0B2429FC0B2429FB0B242900000000AA
:1002580008100230FB004530FC00A930FD00FD0B02
:100268003329FC0B3329FB0B332900000000A0299C
:10027800003083162306031D432903302206031D7D
:10028800702980302106F00080307002031D4E294D
:1002980002302002031C7029831288140630FB00E8
:1002A8001330FC00AD30FD00FD0B5829FC0B58291C
:1002B800FB0B58290000000088100230FB00453075
:1002C800FC00A930FD00FD0B6729FC0B6729FB0B1F
:1002D800672900000000A0298312ED01EE0180309B
:1002E8006E06F00080307002031D7C2903306D0219
:1002F8000318A02908150330FB008A30FC0055308C
:10030800FD00FD0B8529FC0B8529FB0B85290000C9
:10031800000008110330FB008A30FC005530FD0056
:10032800FD0B9429FC0B9429FB0B94290000000079
:10033800ED0A0319EE0A73297A30E8000030E90063
:100348000130D6000030D7000B112608F000250830
:10035800F1002408FB002308FC002208FD00831696
:0E0368002D088A002C0E8300FF0E7F0E090068
:10037600103083120313FD00FD0BBF290000080097
:04038600000008006B
:10038A00083083120313FC002330FD00FD0BCB2938
:06039A00FC0BCB2908005A
:1003A0007B15FB1FDA290130F300F201F101F001A6
:0803B000FA0DF20CFF30080009
:0803B800FA1FF21300300800E7
:1003C00083160313B31BE72983128711E9298312CC
:1003D00087158316331BEF2983120711F129831226
:1003E00007158316B31AF72983128710F929831288
:1003F00087148316331AFF2983120710012A8312E8
:10040000071483162B18072A83120716092A83124A
:1004100007128716C32187128316B319122A831273
:100420008711142A83128715831633191A2A831207
:1004300007111C2A831207158316B318222A831268
:100440008710242A83128714831633182A2A8312CA
:1004500007102C2A8312071483162B18322A8312B2
:100460000716342A831207128716C32187128316B0
:0C0470002B1C3C2AC5213D2ABB210800A2
:0E047C00F201F101F001F801F3010030080077
:10048A007B14FB1F502AF201FA1FFF30F200F10021
:0A049A00F000FA0DF20CFF3008002C
:1004A400FB14FB1F5C2AFF30F300F200F100F000A4
:0804B400FA0DF20CFF30080004
:1004BC00831603132B103208B300E02183162B1480
:0204CC00080026
:1004CE0083120313FB01FA01F901F801A001730D68
:1004DE00F80D7408F8027508031C750FF9027608FA
:1004EE00031C760FFA027708031C770FFB0200013C
:1004FE00031C0130A002F30D0730FC00730DF80D44
:10050E00F90DFA0DFB0DA00D7408731CA02AF8024C
:10051E007508031C750FF9027608031C760FFA0294
:10052E007708031C770FFB020001031C0130A002A9
:10053E00B12AF80775080318750FF907760803181E
:10054E00760FFA0777080318770FFB0700010318D9
:10055E000130A007F30DFC0B852A720DF80DF90D75
:10056E00FA0DFB0DA00D7408731CCF2AF802750846
:10057E00031C750FF9027608031C760FFA02770832
:10058E00031C770FFB020001031C0130A002E02ABE
:10059E00F80775080318750FF90776080318760F14
:1005AE00FA0777080318770FFB07000103180130CD
:1005BE00A007F20D0730FC00720DF80DF90DFA0DC3
:1005CE00FB0DA00D7408721CFE2AF8027508031CA0
:1005DE00750FF9027608031C760FFA027708031CD2
:1005EE00770FFB020001031C0130A0020F2BF8074E
:1005FE0075080318750FF90776080318760FFA07B2
:10060E0077080318770FFB07000103180130A007C6
:10061E00F20DFC0BE32A710DF80DF90DFA0DFB0D21
:10062E00A00D7408721C2D2BF8027508031C750F93
:10063E00F9027608031C760FFA027708031C770F6F
:10064E00FB020001031C0130A0023E2BF8077508C7
:10065E000318750FF90776080318760FFA0777084F
:10066E000318770FFB07000103180130A007F10DE7
:10067E000730FC00710DF80DF90DFA0DFB0DA00DF4
:10068E007408711C5C2BF8027508031C750FF902B7
:10069E007608031C760FFA027708031C770FFB020D
:1006AE000001031C0130A0026D2BF807750803181A
:1006BE00750FF90776080318760FFA0777080318EF
:1006CE00770FFB07000103180130A007F10DFC0B9B
:1006DE00412B700DF80DF90DFA0DFB0DA00D7408E0
:1006EE00711C8B2BF8027508031C750FF902760826
:1006FE00031C760FFA027708031C770FFB0200012A
:10070E00031C0130A0029C2BF80775080318750F07
:10071E00F90776080318760FFA0777080318770F8C
:10072E00FB07000103180130A007F00D0730FC0095
:10073E00700DF80DF90DFA0DFB0DA00D7408701C5F
:10074E00BA2BF8027508031C750FF9027608031C04
:10075E00760FFA027708031C770FFB020001031CC9
:10076E000130A002CB2BF80775080318750FF90797
:10077E0076080318760FFA0777080318770FFB072A
:10078E00000103180130A007F00DFC0B9F2B701811
:10079E00DE2B7408F80775080318750FF90776082D
:1007AE000318760FFA0777080318770FFB07080070
:0E07BE00831203136C088A006B088200080087
:1007CC00831203132230FC00F801F901FA01FB013A
:1007DC00FC0303191C2C0310FB0CFA0CF90CF80C81
:1007EC00F30CF20CF10CF00C031CEE2BFC030319B4
:1007FC000E2C7408F80775080318750FF90776089E
:10080C000318760FFA0777080318770FFB07F22BFC
:10081C007408F80775080318750FF907760803189C
:0E082C00760FFA0777080318770FFB0708000E
:0E083A00073083120313FD00FD0B212C080074
:1008480083120313F801F9011030FC00710DF80D43
:10085800F90D7408F8027508031C750FF9020318DE
:100868003C2C7408F80775080318750FF90703106E
:0A087800F00DF10DFC0B2A2C080016
:1008820083160313C403C4034408003C03184E2C0C
:10089200C403000000000000452C0000000000001E
:0608A20000000000080048
:1008A800A1017208031D692C7108F2007008F1009B
:1008B800F001A1157208031D692C7108F200F101FD
:1008C800A111211672080319772C2108F302031DC0
:1008D800031C7B2C0310F21B7F2CF00DF10DF20D85
:1008E800F30B6F2C7B2C0130FC003E22822C023053
:0E08F800FC00D021822C0430FC00DC21080022
:10090600A03083120313F0000F30F100F201F3015F
:020916000800D7
:10091800831203139F01C0309F046A09F000700816
:1009280083169F051F179F173808F000F00D7010E9
:10093800F00D7010F00D7010700883129F041F14D2
:100948001D241F151F1DAA2C0000A62C1F101E08F1
:10095800F100F00183161E08F0040030F1040800CD
:1009680083120313FB01FC01FA0173080319F32C2A
:10097800F2178E30F302F31BC42C0319C42CF62C87
:10098800F309F30A08307302031CD92CF300F10DA4
:100998007208F100F20108307302031CD92CF10D22
:1009A800F1017308031D0310E12C73080319E12CEE
:1009B8000310F20CF10CF30BDC2C7B1B711CEB2CE1
:1009C800031CEB2CF10A0319F20AF21B022DFA1F81
:1009D800052DF209F109F10A0319F20A052DF201B0
:1009E800F101052D7B14FB1F082DF201FA1F082DBC
:1009F800FF30F200F100FA0DF20C082D0130FC0076
:100A08000A2D0030FC000A2DFF30FC00FC080319F9
:0E0A18000E2D45227108F0007208F100080052
:100A2600831603132E08AA002F08F1000130F000E8
:100A360071080319222DF00D7010FF3E1C2D700851
:100A4600A900F00970088312EF00803083162E0784
:0E0A5600840070088005841370088005080075
:100A64008324E830F4000330F500F601F701E623AF
:100A740070088316C0007108C1007208C2007308B0
:100A8400C3003808F4003908F500F601F7016722BD
:100A940070088316C0007108C1007208C200730890
:100AA400C3007008F5007108F6007208F7007308B7
:100AB400F800F80CF70CF60CF50CF813F80CF70C1E
:100AC400F60CF50CF8137508F0007608F1007708B9
:100AD400F2007808F300F30CF20CF10CF00CF313B1
:100AE4007008BC007108BD00832483163A08F40022
:100AF4003B08F500F601F701E62383163C08F900EC
:100B04003D08FA00FB01FC010330F8007908F40009
:100B14007A08F5007B08F6007C08F70078080319CA
:100B24009A2DF40DF50DF60DF70D7410FF3E912D71
:100B3400672270088316C0007108C1007208C200E1
:100B44007308C3000A30F4000030F5003C08F000DC
:100B54003D08F100242470088316BC007108BD0010
:100B640000307102031DB82D033070020318BB2D31
:100B74000B2E2A0884004308003C031DCB2D420899
:100B8400003C031DCB2D4108003C031DCB2D400828
:100B9400003C0318082E290880043D080319E22D9F
:100BA400BE01BF0100303F02031DDA2D3D083E02A5
:100BB4000318E22DC4014124BE0A0319BF0AD42D2F
:100BC4003C08C400412483126F08800583163D0845
:100BD4000319FC2DBE01BF0100303F02031DF42D9B
:100BE4003D083E020318FC2DC4014124BE0A03192A
:100BF400BF0AEE2D3C08C40041240130C002031C8E
:100C0400C102031CC202031CC302BD2D83126F0860
:040C1400800508004F
:100C1800831603132E08831203178D0083168C1373
:0A0C28000C1483120C08F000080001
:100C3200831203137008F8007108F000F101F20149
:100C4200F301FB01FC019630F300FA017008F10098
:0C0C52007808F000F801F20154240800BA
:100C5E00831603178C1C352E00002F2E03132E081F
:100C6E00831203178D00831603132F0883120317A5
:100C7E008C0083168C130C150B08F0008B1355305B
:100C8E008D00AA308D008C14F01B4F2E8B13502E1E
:060C9E008B170C11080089
:100CA400642E803083160313AE00772EC030AE005E
:100CB400772E9430AE00772ED430AE00772E80306D
:100CC400AE00772E831603132E08013A0319532E10
:100CD4002E08023A0319582E2E08033A03195B2EE4
:100CE4002E08043A03195E2E612E2F03F0002E08FD
:100CF400F0077008AE007008B300E02183162B10D3
:100D0400B10131083007840000080319912E31081D
:100D1400300784000008B2005E22B10A832E2B142F
:020D24000800C5
:100D260083120313FB017308031D77080319EA2EC8
:100D360072087606FA007708F3077E30031CA72EA2
:100D4600F3020318ED2EAA2EF302031CF02E7208EE
:100D5600F8007108FC007008FD00F817F61703107C
:100D6600F201F101F0011830A1007D1CC42E7408B7
:100D7600F00775080318750FF10776080318760F44
:100D8600F207F20CF10CF00CF80CFC0CFD0C031045
:100D9600A10BB82EF21BD42EF80DF00DF10DF20DAD
:100DA600F3037B1B701CE62EF81FE62EF00A0319D0
:100DB600F10A0319F20A031DE62EF20CF10CF00CEF
:100DC600F30A0319ED2EFA1FF2130030F22E01304A
:100DD6003E22F22E02305222F22E0430D0210000A2
:020DE600080003
:100DE800831603138712071207108710071187113C
:100DF8008312871207128711071187100710C52160
:100E0800C521C521871407148716C3218712C52158
:100E18008716C3218712C5218716C3218712C521CA
:100E280007108716C3218712C5218716C321871289
:100E3800871087158716C3218712C52187110714C4
:100E48008716C321871207108716C3218712C52169
:100E58008716C321871207148716C3218712C52155
:100E680007108716C32187128715071587140714DB
:0E0E78008716C3218712C52183162B1408008C
:100E8600DF238A110A128000840AEB0A0319EC0A8E
:080E9600F003031D432F0800C7
:100E9E00FF3083160313A600FF30A700FF30A80013
:100EAE00FF3083129F01C0309F046A09F000700862
:0E0EBE0083169F051F179F1783121F1408002D
:100F540027308400443083120313F0006630EB0022
:080F64000730EC0043270800F0
:101000008A11AA278A1583160313880106168616E5
:1010100006140514831288018B170B168B158B167B
:101020008316011307308100831281018A11F4268F
:101030008A150E309F008A114F278A1508308316B3
:10104000AE000330AF008A1113258A15AE01473078
:10105000AF008A112F268A150E300313AE003630EA
:10106000AF008A112F268A1583160C300313B300A4
:101070008A11E0218A1501308316AE000130AF00DD
:101080002730B0008A1152268A150230AE00013096
:10109000AF005830B0008A1152268A1500308312F2
:1010A0005706031D552801305606031D93280130AD
:1010B0008316B3008A11E0218A158316AE018A11C6
:1010C0000C268A15700883160313B0000130AE0099
:1010D0000130AF008A1152268A150E30AE008A11F7
:1010E0000C268A15700883160313B0000230AE0078
:1010F0000130AF008A1152268A150330FB008A3076
:10110000FC005530FD00FD0B8328FC0B8328FB0BF6
:101110008328000000000130B3008A11E0218A1505
:0A1120008101D601D701342894287C
:100ECC0049346C34793465347334203442346F349F
:0E0EDC0075346434693464346134683400342D
:100EEA004134723469346334653470347434203470
:100EFA00313430346D346734203433342F344A3447
:020F0A000034B1
:100F0C0045346234693478346134203431343034CB
:0E0F1C006D346734203432342F344A340034BC
:040F2A00003400345B
:100F2E004834613476346534203461342034673487
:100F3E006F346F3464342034643461347934003463
:040F4E007A340034BD
:020F52000F345A
:02400E007A3BFB
:00000001FF
